:02000000B7291E
:0E000600213083120313FD00FD0B07280800B4
:100014000F3083120313FC004730FD00FD0B102842
:0A002400FC0B10280000000008008B
:06002E00000000000800C4
:1000340083120313F801F9011030FC00710DF80D5F
:10004400F90D7408F8027508031C750FF9020318FA
:1000540032287408F80775080318750FF907031098
:0A006400F00DF10DFC0B2028080040
:10006E0083120313B80105303802031845283808E7
:10007E003707840020308000B80A3A28380837073E
:10008E0084008001B80338083707B9000A30F4003D
:10009E00F5013508F0003608F1001A207808F00056
:1000AE007908F1003030F0073908840070088000BC
:1000BE000A30F400F5013508F0003608F1001A2078
:1000CE007008B5007108B60000307106031D712866
:1000DE0000307006031D74287628B8034A280800DD
:1000EE0083120313B51B7D2887127E288716351BB6
:1000FE008228071283280716B51A872887118828A1
:10010E008715351A8C2807118D2807152418912864
:10011E00071492280710871417208710B5199928ED
:10012E0087129A28871635199E2807129F280716B8
:10013E00B518A3288711A42887153518A8280711E4
:10014E00A92807152418AD280714AE280710871400
:10015E0017208710241CB5280A20B6280320080073
:0E016E008312031323088A002208820008006F
:10017C0083120313B101B2012C08B3002D08B40093
:10018C0080302D06F00080307002031DCF28003027
:10019C002C020318DD280130B1000030B2002C080D
:1001AC00003CB3002D08031C013EB401B40233081B
:1001BC00B5003408B6002E08B70037200630AF0063
:1001CC000030B0003008003C031DEE282F08003C26
:1001DC00031809292F082E07F20001302F02F00016
:1001EC000030031C013E3002F10070082E07840021
:1001FC000008F00072088400700880000130AF0223
:10020C00031CB003E8282E0884002030800031083D
:10021C00320403192729AF01B0012F082E078400DF
:10022C000008203A031D1E29AF0A0319B00A13292E
:10023C000130AF02031CB0032F082E0784002D30B1
:04024C008000080026
:1002500083160313871007100711871107128712DF
:1002600083128710071087120712871107110A20BF
:100270000A200A20871507158714172087100A20DF
:100280008714172087100A208714172087100A2048
:1002900007118714172087100A208714172087104A
:1002A000871187168714172087100A2087120715D1
:1002B00087141720871007118714172087100A202A
:1002C00087141720871007158714172087100A2016
:1002D000071187141720871087160716871507152B
:0C02E0008714172087100A20241408003F
:1002EC008829803083120313AC009B29C030AC00EA
:1002FC009B299430AC009B29D430AC009B298030D6
:10030C00AC009B29831203132C08013A031977299B
:10031C002C08023A03197C292C08033A03197F296B
:10032C002C08043A0319822985292D03F0002C0886
:10033C00F0077008AC0024147008B5007720241066
:0A034C002E08B500772024140800E5
:10035600B7208A110A128000840AA20A0319A30A86
:08036600F003031DAB290800A0
:10036E007B3083120313A000A10128210C30B500AD
:10037E0077202008AC002108AD002530AE00BE204D
:10038E000130AC000130AD002A08AE007621CE2936
:02400E004A2F37
:00000001FF
