:020000001628C0
:0E0006008312031325088A00240882000800D4
:1000140003208A110A128000840AA40A0319A50A7B
:08002400F003031D0A28080087
:10002C0083120313A001A101A201A30104308316C2
:10003C008800860183128601A201A30108192728D2
:10004C002428081D3728A20A0319A30A0D30FC0026
:10005C00FB30FD00FD0B3028FC0B302800000000AD
:10006C00272880302306F00080307002031D4028C2
:10007C004630220203186928A001A1018030210614
:10008C00F0008030013A7002031D4E28F43020023B
:10009C0003186528081D5728081D552852280615D1
:1000AC0065280330FC009730FD00FD0B5B28FC0B32
:1000BC005B2800000000A00A0319A10A44280619B5
:1000CC00682806146A2886140B30FB002630FC00C6
:1000DC005D30FD00FD0B7028FC0B7028FB0B7028AD
:0800EC00000000002228792821
:02400E004A2F37
:00000001FF
