:0200000088284E
:10000800FF00030E8301C3000A08C4008A017008B8
:10001800A5007108A4007208A3007B08A2007C0850
:10002800A1007D08A0000408A600061C1C281928A9
:10003800A901AA0180302A06F0008030013A700236
:10004800031D2828F430290203183E28061C3028EE
:10005800BF0A0319C00A19280330FC009730FD00B5
:10006800FD0B3428FC0B342800000000A90A0319F2
:10007800AA0A1E28BF0A0319C00A3F08A700400899
:10008800A8003F08F0004008F100F00DF10D7010D5
:1000980070082B3E8400000887000B30FB002630D8
:1000A800FC005D30FD00FD0B5728FC0B5728FB0BAF
:1000B8005728000000008B102508F0002408F100E4
:1000C8002308F2002208FB002108FC002008FD009C
:1000D8002608840044088A00430E8300FF0E7F0E22
:0200E80009000D
:0E00EA008312031342088A00410882000800B6
:1000F80075208A110A128000840AC10A0319C20AEB
:08010800F003031D7C28080030
:1001100083120313A701A801A901AA013F30AB0074
:10012000AC010630AD00AE015B30AF00B0014F3026
:10013000B100B2016630B300B4016D30B500B60154
:100140007D30B700B8010730B900BA017F30BB007D
:10015000BC016F30BD00BE01BF01C0018B170B1782
:100160000B1683160117870183128701A701A801C7
:1001700080302806F00080307002031DC1280A304C
:1001800027020318E3282708F0002808F100F00DE3
:10019000F10D701070082B3E840000088700BF012D
:1001A000C0010B30FB002630FC005D30FD00FD0B74
:1001B000D728FC0BD728FB0BD72800000000A70A84
:0A01C0000319A80AB828B628E4289D
:02400E004A2F37
:00000001FF
