:020000003B289B
:10000800FF00030E8301A4000A08A5008A010C144E
:100018000C1C2128D8308F00EF308E00A00A03195D
:10002800A10A00302106031D1B2832302006031DBB
:100038002028A001A10186090C1025088A00240E99
:080048008300FF0E7F0E09008A
:0E0050008312031323088A002208820008008E
:10005E0028208A110A128000840AA20A0319A30A10
:08006E00F003031D2F28080018
:1000760083120313A001A10101309000C0308B0050
:1000860083160C14D83083128F00EF308E0083163F
:0A0096008601831286014E284F28D0
:02400E004A2F37
:00000001FF
