:020000001428C2
:10000600043083120313F2002608F0002708F100DB
:10001600720803191328F00DF10D7010FF3E0C281D
:020026000800D0
:1000280083160313860183128601A001A101803083
:10003800F000803021067002031D24282008093CA6
:10004800031C5128A201A3018030F0008030230650
:100058007002031D31282208093C031C4D28200882
:10006800A6002108A7000320700822078600063092
:10007800FB001330FC00AD30FD00FD0B4128FC0BEC
:100088004128FB0B412800000000A20A0319A30A1B
:0C0098002828A00A0319A10A1B285128DF
:02400E004A2F37
:00000001FF
