:020000001628C0
:0E0006008312031337088A00360882000800B0
:1000140003208A110A128000840AB60A0319B70A57
:08002400F003031D0A28080087
:10002C0083120313A001A1013F30A200A3010630EB
:10003C00A400A5015B30A600A7014F30A800A901C0
:10004C006630AA00AB016D30AC00AD017D30AE0066
:10005C00AF010730B000B1017F30B200B3016F3097
:10006C00B400B501831687018312870118308316FB
:10007C0088008312881943283F28A001A1018030F1
:10008C002106F00080307002031D4E280A30200239
:10009C00031866282008F0002108F100F00DF10D7E
:1000AC0070107008223E840000088700081A5F2830
:1000BC005C28081E62285F28A00A0319A10A45289B
:0400CC004328672836
:02400E004A2F37
:00000001FF
