:02000000F52ADF
:10000800FF00030E8301D3000A08D2008A010B1DEA
:1000180013280B1105308100A40A0319A50A5208F8
:0C0028008A00530E8300FF0E7F0E0900BB
:0E003400213083120313FD00FD0B1E2808006F
:100042000F3083120313FC004730FD00FD0B2728FD
:0A005200FC0B272800000000080046
:06005C0000000000080096
:1000620083120313E21B3728871238288716621B74
:100072003C2807123D280716E21A41288711422818
:100082008715621A46280711472807153C184B287E
:1000920007144C28071087142E208710E2195328C2
:1000A20087125428871662195828071259280716EA
:1000B200E2185D2887115E288715621862280711E9
:1000C200632807153C186728071468280710871447
:1000D2002E2087103C1C6F28212070281A2008002F
:1000E20083120313F801F9011030FC00710DF80DB1
:1000F200F90D7408F8027508031C750FF90203184C
:1001020089287408F80775080318750FF907031092
:0A011200F00DF10DFC0B772808003A
:10011C00831203133C105D08E20031203C140800EC
:10012C0083120313E001053060020318A428600851
:10013C005F07840020308000E00A992860085F0780
:10014C0084008001E00360085F07E1000A30F400DE
:10015C00F5015D08F0005E08F10071207808F000F0
:10016C007908F1003030F0076108840070088000D5
:10017C000A30F400F5015D08F0005E08F100712012
:10018C007008DD007108DE0000307106031DD028F8
:10019C0000307006031DD328D528E003A9280800D9
:1001AC00E828803083120313D400FB28C030D4001D
:1001BC00FB289430D400FB28D430D400FB288030AA
:1001CC00D400FB28831203135408013A0319D728CF
:1001DC005408023A0319DC285408033A0319DF289F
:1001EC005408043A0319E228E5285503F000540892
:1001FC00F0077008D4007008E20031203C10D701E1
:10020C005708560784000008031914295708560785
:10021C0084000008DD008E20D70A06293C14080053
:10022C0083120313D901DA015408DB005508DC00F2
:10023C0080305506F00080307002031D27290030F5
:10024C005402031835290130D9000030DA00540863
:10025C00003CDB005508031C013EDC01DC025B08A2
:10026C00DD005C08DE005608DF0096200630D70063
:10027C000030D8005808003C031D46295708003CA4
:10028C000318612957085607F20001305702F00095
:10029C000030031C013E5802F10070085607840020
:1002AC000008F00072088400700880000130D7024A
:1002BC00031CD803402956088400203080005908BC
:1002CC005A0403197F29D701D8015708560784000F
:1002DC000008203A031D7629D70A0319D80A6B297E
:1002EC000130D702031CD8035708560784002D3061
:0402FC008000080076
:10030000831203132C08D4002D08D5004B30D600DF
:1003100016212808D4002908D5004430D60016211B
:100320002008D4002108D5003D30D6001621410810
:10033000B0004208B1003A30B2004808B3004908A2
:10034000B4003A30B5004F08B6005008B700A2011B
:10035000A30180302306F00080307002031DB22913
:10036000083022020318C4292208303E8400000805
:10037000203A031DC0292208303E8400303080001E
:10038000A20A0319A30AA9292030B80000302B06BD
:10039000031DCC2900302A06031DD1295030B90095
:1003A000D3294130B9004D30BA002030BB000130B4
:0E03B000D4000530D5003030D600D62008002D
:1003BE008316031387100710071187110712871270
:1003CE008312871007108712071287110711212039
:1003DE00212021208715071587142E208710212014
:1003EE0087142E208710212087142E20871021207D
:1003FE00071187142E208710212087142E20871096
:10040E008711871687142E20871021208712071533
:10041E0087142E208710071187142E208710212075
:10042E0087142E208710071587142E208710212061
:10043E00071187142E2087108716071687150715A4
:0C044E0087142E20871021203C14080089
:10045A008312031325082706031D352A26082406B6
:10046A00031D3B2A0130E20031204D2A2608F10003
:10047A002708F200F10DF20D711025087206031D0E
:10048A00482A71082406031D4D2AA401A5018021CA
:02049A00080058
:10049C000030831203132106031D562A0C3020064C
:0A04AC00031D5A2AAA09AB09080033
:0E04B600831203132F088A002E08820008000C
:1004C4000030831203132906031D6A2A3C302806D0
:1004D400031D7C2AA801A90100302106031D742AEA
:1004E4000C302006031D782AA001A101A00A0319DB
:0604F400A10A4E220800DF
:1004FA000030831203132D06031D852A3C302C0677
:10050A00031D8C2AAC01AD01A80A0319A90A080027
:0C051A0083120313AC0A0319AD0A080099
:100526000730831603138800853081008B170B175D
:10053600DF210C30E200312080210B30FB00263019
:10054600FC005D30FD00FD0BA62AFC0BA62AFB0B6A
:08055600A62A000000000800C5
:10055E005B228A110A128000840AAE0A0319AF0ABE
:08056E00F003031DAF2A080091
:100576008B160530831203138100881CD52AA80A1E
:100586000319A90A00302906031DCB2A3C30280688
:10059600031DCF2AA801A9018021A401A501881C59
:1005A600D52AD22A081DEB2A00302106031DDD2A92
:1005B6000C302006031DE12AA001A101A00A03199F
:1005C600A10A4E228021A401A501081DEB2AE82AD2
:1005D600081CF22A081CF02AED2A8B12F42A2D2276
:0405E600C02A08001F
:1005EA000A3083120313A000A101A201A301A401EE
:1005FA00A5013F30A600A7013730A800A901AA012A
:10060A00AB010630AC00AD01932208181F2B8D22D6
:10061A007D22622280210B30FB002630FC005D30F7
:10062A00FD00FD0B162BFC0B162BFB0B162B0000EB
:10063A0000002F2B8230FC00DD30FD00FD0B232B48
:10064A00FC0B232B00000000081C2F2B081C2E2B50
:08065A002B2BBB220A2B302BD5
:02400E004A2F37
:00000001FF
