:020000002828AE
:10000800FF00030E8301B8000A08B9008A010B1D1E
:100018000E280B1139088A00380E8300FF0E7F0E58
:020028000900CD
:0E002A008312031337088A003608820008008C
:1000380015208A110A128000840AB60A0319B70A21
:08004800F003031D1C28080051
:1000500083120313A001A1013F30A200A3010630C7
:10006000A400A5015B30A600A7014F30A800A9019C
:100070006630AA00AB016D30AC00AD017D30AE0042
:10008000AF010730B000B1017F30B200B3016F3073
:10009000B400B5018316811601168111011181107A
:1000A00001108B160B178B1705168701831287011A
:1000B00081010108A000A1012008F0002108F10041
:1000C000F00DF10D70107008223E840000088700CA
:0400D000592869281A
:02400E004A2F37
:00000001FF
