:020000001328C3
:10000800FF00030E8301A3000A08A2008A018701EA
:0E00180022088A00230E8300FF0E7F0E0900CF
:10002600831603138701033088008312870108189B
:100036001D281A28013087000B30FB002630FC00F3
:100046005D30FD00FD0B2528FC0B2528FB0B252824
:1000560000000000033087000B30FB002630FC0058
:100066005D30FD00FD0B3528FC0B3528FB0B3528D4
:100076000000000007308700881842283F2818280B
:0200860043280D
:02400E004A2F37
:00000001FF
