:020000000329D2
:0E000600213083120313FD00FD0B07280800B4
:100014000F3083120313FC004730FD00FD0B102842
:0A002400FC0B10280000000008008B
:06002E00000000000800C4
:1000340083120313AD1B20288712212887162D1B3A
:100044002528071226280716AD1A2A2887112B28D7
:1000540087152D1A2F28071130280715271834283B
:10006400071435280710871417208710AD193C286A
:1000740087123D2887162D19412807124228071692
:10008400AD1846288711472887152D184B280711C6
:100094004C280715271850280714512807108714CF
:1000A40017208710271C58280A20592803200800E5
:0E00B4008312031326088A0025088200080024
:1000C2008312031327102C08AD001A2027140800EE
:1000D200831603138710071007118711071287125F
:1000E20083128710071087120712871107110A203F
:1000F2000A200A20871507158714172087100A205F
:100102008714172087100A208714172087100A20C7
:1001120007118714172087100A20871417208710C9
:10012200871187168714172087100A208712071550
:1001320087141720871007118714172087100A20A9
:1001420087141720871007158714172087100A2095
:1001520007118714172087108716071687150715AA
:0C0162008714172087100A2027140800BB
:10016E00C928803083120313A800DC28C030A800F1
:10017E00DC289430A800DC28D430A800DC2880309D
:10018E00A800DC28831203132808013A0319B828A3
:10019E002808023A0319BD282808033A0319C02873
:1001AE002808043A0319C328C6282903F000280892
:1001BE00F0077008A8007008AD001A202710AB01D8
:1001CE002B082A07840000080319F5282B082A0794
:1001DE0084000008AC006120AB0AE7282714080051
:1001EE005A208A110A128000840AA50A0319A60A47
:0801FE00F003031DF7280800BF
:10020600743083120313A0006530A1007330A2007E
:100216007430A300A40169200C30AD001A2001300F
:10022600A8000130A9002030AA00B72012291A29F7
:02400E004A2F37
:00000001FF
