:020000003B289B
:10000800FF00030E8301A4000A08A5008A010B1D46
:1000180021280B1163308100A00A0319A10A80303E
:100028002106F00080307002031D1C286430200275
:10003800031C21288609A001A10125088A00240E95
:080048008300FF0E7F0E09008A
:0E0050008312031323088A002208820008008E
:10005E0028208A110A128000840AA20A0319A30A10
:08006E00F003031D2F28080018
:1000760083120313A001A1018B170B178B1683168E
:1000860081128111011081140115633083128100E0
:0E0096008316860183128601013086005128F0
:02400E004A2F37
:00000001FF
